:100000002AC0000042C0000040C000003EC0000006
:100010003CC000003AC0000038C0000001C300002E
:1000200034C0000032C0000030C000002EC000000C
:100030002CC000002AC0000028C0000026C000001C
:1000400024C0000022C0000020C000001EC000002C
:100050001CC00000470311241FBECFE5D8E0DEBF5F
:10006000CDBF20E0A0E6B0E001C01D92A73AB207E4
:10007000E1F710E0CBE2D0E003C02197FE015ED3B0
:10008000CA32D107D1F72CD3A5C5BACF9EB5987F78
:100090009EBD9EB5892B8EBD0895811106C08EB57B
:1000A00088608EBD89B7806189BF0895FC01A281F7
:1000B000B3814C9181E090E09C01078002C0220F47
:1000C000331F0A94E2F7242B2C93A081B1814C9129
:1000D0009C01068002C0220F331F0A94E2F7242BF2
:1000E0002C93A081B1812C91068002C0880F991FAA
:1000F0000A94E2F7809582238C9381859285A3856B
:10010000B4850196A11DB11D81879287A387B4870D
:1001100085859685A785B0890197A109B10985874D
:100120009687A787B08B0895AF92BF92CF92EF9238
:100130000F93FC0160837183068353834283E782BC
:1001400035832483C086118612861386148615860D
:1001500016861786108AB28AA18ADB014E9181E049
:1001600090E09C0101C0220F0A95EAF7242B2C9302
:10017000A281B3814E919C01078002C0220F331FE0
:100180000A94E2F7242B2C93A481B5812E9100844C
:1001900002C0880F991F0A94E2F7822B8C930F916B
:1001A000EF90CF90BF90AF900895FC01611101C016
:1001B0007DCFA281B3813C9181E090E0AC010780CA
:1001C00002C0440F551F0A94E2F7242F20952323E1
:1001D0002C93A081B1814C919C01068002C0220F1A
:1001E000331F0A94E2F7242B2C93A081B1812C9128
:1001F000068002C0880F991F0A94E2F78095822337
:100200008C9381859285A385B4850197A109B10955
:1002100081879287A387B48785859685A785B089CE
:100220000196A11DB11D85879687A787B08B08957C
:10023000FC01418552856385748577FD37CF61E088
:10024000B4CFFC0141875287638774870895FC010E
:10025000418552856385748581E0452B462B472B6C
:1002600009F080E008954F925F926F927F92AF9273
:10027000BF92CF92DF92EF92FF920F931F93CF9393
:10028000DF93411551056105710509F472C05901EB
:100290006A017B01EC01B90180E090E053D39B013E
:1002A000AC0160E074E284EF99E4B3D21FD36983B8
:1002B0007A838B839C83B80180E090E043D32B0149
:1002C0003C019B01AC0160E070E080E090E4A1D2D1
:1002D0002ED420E03AE045EA59E4C2D307D3698737
:1002E0007A878B879C87AA9CB001AB9C700D700DA0
:1002F000112480E090E026D3A30192018AD2F1D2AA
:10030000698B7A8B8B8B9C8BC701B6011DD320E048
:1003100030E040E05FE3A4D3E4D209891A892B8955
:100320003C89061717072807390728F06D8B7E8B45
:100330008F8B988F0CC089899A89AB89BC89C81A20
:10034000D90AEA0AFB0ACD8ADE8AEF8AF88E81E0B2
:100350008883198E1A8E1B8E1C8E1D8E1E8E1F8EEC
:1003600018A21D861E861F86188AF89482E08EDEEB
:100370007894DF91CF911F910F91FF90EF90DF90D4
:10038000CF90BF90AF907F906F905F904F90089507
:100390004F925F926F927F928F929F92AF92BF9295
:1003A000CF92DF92EF92FF920F931F93CF93DF9341
:1003B00000D000D000D0CDB7DEB79E838D83FC0186
:1003C0008081882319F0813021F0B4C080E05EDEA6
:1003D000B1C0ED81FE81858D968DA78DB0A101966E
:1003E000A11DB11D858F968FA78FB0A3818D928D92
:1003F000A38DB48D0196A11DB11D818F928FA38F06
:10040000B48F618572858385948581849284A38469
:10041000B4844584568467847088218D328D438DE1
:10042000548D29833A834B835C838CD26B017C018E
:10043000C501B40187D29B01AC0187D14B015C019E
:10044000C301B2017FD29B01AC01C501B4017DD1D2
:100450004B015C0169817A818B819C8175D220E09E
:1004600030E040E850E4FCD220E030E040E85FE3D8
:100470006CD19B01AC01C501B401CBD19B01AC0196
:10048000C701B60161D132D2ED81FE8161877287E9
:100490008387948761857285838594858584968416
:1004A000A784B088C18CD28CE38CF48C4BD29B0196
:1004B000AC014BD12B013C01C501B40143D29B01DE
:1004C000AC01C301B20141D111D29701860142E0D2
:1004D000000F111F221F331F4A95D1F7A901980160
:1004E0002F5F3F4F4F4F5F4F07D1ED81FE816587F3
:1004F00076878787908B458D568D678D70A1818912
:100500009289A389B48984179507A607B70790F045
:1005100081859285A385B48585839683A783B087DB
:1005200081819281A381B48181879287A387B487D7
:1005300083E08083ED81FE8181859285A385B485EA
:1005400026960FB6F894DEBF0FBECDBFDF91CF91D8
:100550001F910F91FF90EF90DF90CF90BF90AF90E1
:100560009F908F907F906F905F904F900895FC01C7
:1005700010821186128613861486118212821382CB
:100580001482158A168A178A108E118E128E138E77
:10059000148E158E168E178E10A215821682178253
:1005A0001086158616861786108A0895AF92BF9218
:1005B000CF92DF92EF92FF920F931F93CF93DF932F
:1005C0006B017C01EA015901002341F044275527C2
:1005D000BA014C195D096E097F0902C0AB01BC016B
:1005E00084E990E02EDEB701A60181E890E029DEE3
:1005F00085019E01B701A60180E690E034DEDF911F
:10060000CF911F910F91FF90EF90DF90CF90BF900F
:10061000AF90089580E041DD80E038DD7894089562
:100620001F920F920FB60F9211242F933F934F9367
:100630005F936F937F938F939F93AF93BF93EF934A
:10064000FF9380E690E0A4DE9BBD8ABD81E890E048
:10065000FEDD811103C081E890E0EADD84E990E0ED
:10066000F6DD811103C084E990E0E2DDFF91EF91B6
:10067000BF91AF919F918F917F916F915F914F91BA
:100680003F912F910F900FBE0F901F901895AF9232
:10069000BF92CF92EF920F9380E8A82E8CE0B82EF5
:1006A00093E0C92E22E0E22E05E028E330E042E3A9
:1006B00050E062E370E084E990E036DD06E028E394
:1006C00030E042E350E062E370E081E890E02CDD4E
:1006D00080E690E00F91EF90CF90BF90AF9047CF22
:1006E00099DF01E028EE33E040E157E260E375E78F
:1006F00080E090E05BDFFFCFA1E21A2EAA1BBB1BBC
:10070000FD010DC0AA1FBB1FEE1FFF1FA217B307DD
:10071000E407F50720F0A21BB30BE40BF50B661FF3
:10072000771F881F991F1A9469F7609570958095B7
:1007300090959B01AC01BD01CF010895EE0FFF1F05
:100740000590F491E02D09945058BB27AA270ED0AC
:100750004DC13ED130F043D120F031F49F3F11F430
:100760001EF433C10EF4E095E7FB29C1E92F4FD108
:1007700080F3BA17620773078407950718F071F4BE
:100780009EF567C10EF4E0950B2EBA2FA02D0B013C
:10079000B90190010C01CA01A0011124FF27591BC6
:1007A00099F0593F50F4503E68F11A16F040A22FCC
:1007B000232F342F4427585FF3CF4695379527953D
:1007C000A795F0405395C9F77EF41F16BA0B620B3C
:1007D000730B840BBAF09150A1F0FF0FBB1F661F83
:1007E000771F881FC2F70EC0BA0F621F731F841FC6
:1007F00048F4879577956795B795F7959E3F08F0EC
:10080000B3CF9395880F08F09927EE0F97958795AA
:1008100008950CD0EBC0E3D040F0DAD030F021F4F2
:100820005F3F19F0CCC0511115C1CFC0F0D098F383
:100830009923C9F35523B1F3951B550BBB27AA2761
:1008400062177307840738F09F5F5F4F220F331FD3
:10085000441FAA1FA9F333D00E2E3AF0E0E830D09F
:1008600091505040E695001CCAF729D0FE2F27D0A2
:10087000660F771F881FBB1F261737074807AB0770
:10088000B0E809F0BB0B802DBF01FF2793585F4FE5
:100890002AF09E3F510568F092C0DCC05F3FECF348
:1008A000983EDCF3869577956795B795F7959F5FAA
:1008B000C9F7880F911D9695879597F90895E1E0FE
:1008C000660F771F881FBB1F621773078407BA075D
:1008D00020F0621B730B840BBA0BEE1F88F7E095B8
:1008E000089504D06894B111B5C0089598D088F0E7
:1008F0009F5790F0B92F9927B751A0F0D1F0660F0C
:10090000771F881F991F1AF0BA95C9F712C0B13026
:1009100081F09FD0B1E008959CC0672F782F882781
:10092000B85F39F0B93FCCF3869577956795B39565
:10093000D9F73EF490958095709561957F4F8F4FD4
:100940009F4F0895E89409C097FB3EF490958095D9
:10095000709561957F4F8F4F9F4F9923A9F0F92F85
:1009600096E9BB279395F695879577956795B79503
:10097000F111F8CFFAF4BB0F11F460FF1BC06F5FE9
:100980007F4F8F4F9F4F16C0882311F096E911C0FB
:10099000772321F09EE8872F762F05C0662371F01C
:1009A00096E8862F70E060E02AF09A95660F771F30
:1009B000881FDAF7880F9695879597F9089597F924
:1009C0009F6780E870E060E008959FEF80EC0895F5
:1009D00000240A941616170618060906089500241E
:1009E0000A9412161306140605060895092E039498
:1009F000000C11F4882352F0BB0F40F4BF2B11F40C
:100A000060FF04C06F5F7F4F8F4F9F4F089557FD6A
:100A10009058440F551F59F05F3F71F04795880F6C
:100A200097FB991F61F09F3F79F087950895121603
:100A300013061406551FF2CF4695F1DF08C01616AF
:100A400017061806991FF1CF869571056105089460
:100A50000895E894BB2766277727CB0197F9089577
:100A60000BD0C4CFB5DF28F0BADF18F0952309F01A
:100A7000A6CFABCF1124EECFCADFA0F3959FD1F361
:100A8000950F50E0551F629FF001729FBB27F00D3C
:100A9000B11D639FAA27F00DB11DAA1F649F662791
:100AA000B00DA11D661F829F2227B00DA11D621FE0
:100AB000739FB00DA11D621F839FA00D611D221F9A
:100AC000749F3327A00D611D231F849F600D211D7E
:100AD000822F762F6A2F11249F5750408AF0E1F021
:100AE00088234AF0EE0FFF1FBB1F661F771F881F6A
:100AF00091505040A9F79E3F510570F060CFAACFAA
:100B00005F3FECF3983EDCF3869577956795B79554
:100B1000F795E7959F5FC1F7FE2B880F911D96957E
:100B2000879597F9089511F40EF44FCF3EC077DF03
:100B3000D0F39923D9F3CEF39F57550B87FF43D0BA
:100B40000024A0E640EA900180585695979528F435
:100B5000805C660F771F881F20F02617370748072D
:100B600030F4621B730B840B202931294A2BA69584
:100B700017940794202531254A2758F7660F771FC9
:100B8000881F20F026173707480730F4620B730BD5
:100B9000840B200D311D411DA09581F7B901842FD3
:100BA0009158880F9695879508959F3F31F0915001
:100BB00020F4879577956795B795880F911D969541
:100BC000879597F9089591505040660F771F881FB9
:080BD000D2F70895F894FFCF5D
:00000001FF
